:020000040800F2
:100000000000012095330008732400087B240008B9
:10001000832400088B2400089324000800000000BB
:100020000000000000000000000000009B24000809
:10003000A724000800000000B3240008BF24000823
:10004000E5330008E5330008CD240008E533000857
:10005000E5330008E5330008E5330008E533000820
:10006000E5330008E5330008E5330008E124000823
:10007000E5330008E5330008E5330008E533000800
:10008000E5330008E5330008E5330008E5330008F0
:1000900000000000E5330008E5330008E533000800
:1000A000E5330008E5330008E5330008E5330008D0
:1000B000E5330008E5330008E5330008E5330008C0
:1000C000E5330008E5330008E5330008E5330008B0
:1000D000F5240008E5330008E5330008E53300089F
:1000E000E53300080925000819250008E533000854
:1000F000E53300080000000000000000E5330008C0
:10010000E5330008E53300082D250008E533000835
:10011000E5330008E5330008E5330008E53300085F
:10012000E5330008E5330008E5330008E53300084F
:08013000E5330008E533000887
:1001380010B5054C237833B9044B13B10448AFF319
:1001480000800123237010BD4C0100200000000036
:10015800F8D7010808B5034B1BB103490348AFF3AF
:10016800008008BD0000000050010020F8D70108F9
:10017800034613F8012B002AFBD1181A01387047DF
:1001880081F0004102E000BF83F0004330B54FEA40
:1001980041044FEA430594EA050F08BF90EA020FAD
:1001A8001FBF54EA000C55EA020C7FEA645C7FEA40
:1001B800655C00F0E2804FEA5454D4EB5555B8BF63
:1001C8006D420CDD2C4480EA020281EA030382EAD4
:1001D800000083EA010180EA020281EA0303362D66
:1001E80088BF30BD11F0004F4FEA01314FF4801C39
:1001F8004CEA113102D0404261EB410113F0004F4B
:100208004FEA03334CEA133302D0524263EB430301
:1002180094EA050F00F0A780A4F10104D5F1200E9F
:100228000DDB02FA0EFC22FA05F2801841F10001FA
:1002380003FA0EF2801843FA05F359410EE0A5F1CE
:1002480020050EF1200E012A03FA0EFC28BF4CF0FF
:10025800020C43FA05F3C01851EBE37101F00045B5
:1002680007D54FF0000EDCF1000C7EEB00006EEBC2
:100278000101B1F5801F1BD3B1F5001F0CD349084C
:100288005FEA30004FEA3C0C04F101044FEA4452A3
:1002980012F5800F80F09A80BCF1004F08BF5FEA2A
:1002A800500C50F1000041EB045141EA050130BD0A
:1002B8005FEA4C0C404141EB0101013C28BFB1F51C
:1002C800801FE9D291F0000F04BF01460020B1FA67
:1002D80081F308BF2033A3F10B03B3F120020CDA3A
:1002E8000C3208DD02F1140CC2F10C0201FA0CF018
:1002F80021FA02F10CE002F11402D8BFC2F1200C7D
:1003080001FA02F120FA0CFCDCBF41EA0C01904032
:10031800E41AA2BF01EB0451294330BD6FEA04047B
:100328001F3C1CDA0C340EDC04F11404C4F1200266
:1003380020FA04F001FA02F340EA030021FA04F378
:1003480045EA030130BDC4F10C04C4F1200220FACF
:1003580002F001FA04F340EA0300294630BD21FA0D
:1003680004F0294630BD94F0000F83F4801306BFD3
:1003780081F480110134013D4EE77FEA645C18BFC7
:100388007FEA655C29D094EA050F08BF90EA020F5E
:1003980005D054EA000C04BF1946104630BD91EA56
:1003A800030F1EBF0021002030BD5FEA545C05D159
:1003B8004000494128BF41F0004130BD14F5800498
:1003C8003CBF01F5801130BD01F0004545F0FE410C
:1003D80041F470014FF0000030BD7FEA645C1ABF41
:1003E800194610467FEA655C1CBF0B46024650EA78
:1003F800013406BF52EA033591EA030F41F40021A4
:1004080030BD00BF90F0000F04BF0021704730B529
:100418004FF4806404F132044FF000054FF00001FE
:1004280050E700BF90F0000F04BF0021704730B5BF
:100438004FF4806404F1320410F0004548BF404294
:100448004FF000013EE700BF42004FEAE2014FEAE9
:1004580031014FEA02701FBF12F07F4393F07F4FC4
:1004680081F06051704732F07F4208BF704793F0C7
:100478007F4F04BF41F40021704730B54FF46074DA
:1004880001F0004521F000411CE700BF50EA0102DD
:1004980008BF704730B54FF000050AE050EA010286
:1004A80008BF704730B511F0004502D5404261EBF6
:1004B80041014FF4806404F132045FEA915C3FF437
:1004C800D8AE4FF003025FEADC0C18BF03325FEAD4
:1004D800DC0C18BF033202EBDC02C2F1200300FA85
:1004E80003FC20FA02F001FA03FE40EA0E0021FAAA
:1004F80002F11444BDE600BF70B54FF0FF0C4CF498
:10050800E06C1CEA11541DBF1CEA135594EA0C0F49
:1005180095EA0C0F00F0DEF82C4481EA030621EA84
:100528004C5123EA4C5350EA013518BF52EA0335BF
:1005380041F4801143F4801338D0A0FB02CE4FF071
:100548000005E1FB02E506F00042E0FB03E54FF0A1
:100558000006E1FB03569CF0000F18BF4EF0010E99
:10056800A4F1FF04B6F5007F64F5407404D25FEA95
:100578004E0E6D4146EB060642EAC62141EA555148
:100588004FEAC52040EA5E504FEACE2EB4F1FD0C8A
:1005980088BFBCF5E06F1ED8BEF1004F08BF5FEA08
:1005A800500E50F1000041EB045170BD06F00046BA
:1005B80046EA010140EA020081EA0301B4EB5C0467
:1005C800C2BFD4EB0C0541EA045170BD41F480115F
:1005D8004FF0000E013C00F3AB8014F1360FDEBF84
:1005E800002001F0004170BDC4F10004203C35DA60
:1005F8000C341BDC04F11404C4F1200500FA05F3E3
:1006080020FA04F001FA05F240EA020001F0004283
:1006180021F0004110EBD37021FA04F642EB0601F9
:100628005EEA430E08BF20EAD37070BDC4F10C0423
:10063800C4F1200500FA04F320FA05F001FA04F2E7
:1006480040EA020001F0004110EBD37041F10001D3
:100658005EEA430E08BF20EAD37070BDC4F12005DE
:1006680000FA05F24EEA020E20FA04F301FA05F246
:1006780043EA020321FA04F001F0004121FA04F2EE
:1006880020EA020000EBD3705EEA430E08BF20EABE
:10069800D37070BD94F0000F0FD101F000464000F8
:1006A80041EB010111F4801F08BF013CF7D041EA7A
:1006B800060195F0000F18BF704703F0004652007E
:1006C80043EB030313F4801F08BF013DF7D043EA4F
:1006D8000603704794EA0C0F0CEA135518BF95EA05
:1006E8000C0F0CD050EA410618BF52EA4306D1D18C
:1006F80081EA030101F000414FF0000070BD50EAAB
:10070800410606BF1046194652EA430619D094EA34
:100718000C0F02D150EA013613D195EA0C0F05D11E
:1007280052EA03361CBF104619460AD181EA030172
:1007380001F0004141F0FE4141F470014FF000002A
:1007480070BD41F0FE4141F4780170BD70B54FF0C5
:10075800FF0C4CF4E06C1CEA11541DBF1CEA135545
:1007680094EA0C0F95EA0C0F00F0A7F8A4EB050427
:1007780081EA030E52EA03354FEA013100F088801E
:100788004FEA03334FF0805545EA131343EA1263E7
:100798004FEA022245EA111545EA10654FEA00269C
:1007A8000EF000419D4208BF964244F1FD0404F555
:1007B800407402D25B084FEA3202B61A65EB0305B1
:1007C8005B084FEA32024FF480104FF4002CB6EB6E
:1007D800020E75EB030E22BFB61A754640EA0C00EE
:1007E8005B084FEA3202B6EB020E75EB030E22BF2E
:1007F800B61A754640EA5C005B084FEA3202B6EB6F
:10080800020E75EB030E22BFB61A754640EA9C002D
:100818005B084FEA3202B6EB020E75EB030E22BFFD
:10082800B61A754640EADC0055EA060E18D04FEABB
:10083800051545EA16754FEA06164FEAC30343EA5B
:1008480052734FEAC2025FEA1C1CC0D111F4801F28
:100858000BD141EA00014FF000004FF0004CB6E721
:1008680011F4801F04BF01430020B4F1FD0C88BFC0
:10087800BCF5E06F3FF6AFAEB5EB030C04BFB6EBCB
:10088800020C5FEA500C50F1000041EB045170BDBE
:100898000EF0004E4EEA113114EB5C04C2BFD4EBEB
:1008A8000C0541EA045170BD41F480114FF0000E6F
:1008B800013C90E645EA060E8DE60CEA135594EAEB
:1008C8000C0F08BF95EA0C0F3FF43BAF94EA0C0FEE
:1008D8000AD150EA01347FF434AF95EA0C0F7FF463
:1008E80025AF104619462CE795EA0C0F06D152EAB7
:1008F80003353FF4FDAE1046194622E750EA41069B
:1009080018BF52EA43067FF4C5AE50EA41047FF4AB
:100918000DAF52EA43057FF4EBAE12E74FF0FF3C10
:1009280006E000BF4FF0010C02E000BF4FF0010CE1
:100938004DF804CD4FEA410C7FEA6C5C4FEA430C5A
:1009480018BF7FEA6C5C1BD001B050EA410C0CBFA9
:1009580052EA430C91EA030F02BF90EA020F00200B
:10096800704710F1000F91EA030F58BF994208BF72
:1009780090422CBFD8176FEAE37040F0010070472F
:100988004FEA410C7FEA6C5C02D150EA013C07D186
:100998004FEA430C7FEA6C5CD6D152EA033CD3D0D1
:1009A8005DF8040B704700BF8446104662468C46CB
:1009B8001946634600E000BF01B5FFF7B7FF0028FE
:1009C80048BF10F1000F01BD4DF808EDFFF7F4FF27
:1009D8000CBF012000205DF808FB00BF4DF808EDB2
:1009E800FFF7EAFF34BF012000205DF808FB00BFD5
:1009F8004DF808EDFFF7E0FF94BF012000205DF8F7
:100A080008FB00BF4DF808EDFFF7CEFF94BF0120AB
:100A180000205DF808FB00BF4DF808EDFFF7C4FFA4
:100A280034BF012000205DF808FB00BF4FEA4102F7
:100A380012F5001215D211D56FF47873B3EB625228
:100A480012D94FEAC12343F0004343EA505311F04F
:100A5800004F23FA02F018BF404270474FF00000E1
:100A6800704750EA013005D111F0004008BF6FF01F
:100A7800004070474FF00000704700BF4FEA410246
:100A8800B2F1E04324BFB3F5001CDCF1FE5C0DD9E4
:100A980001F0004C4FEAC0024CEA5070B2F1004F2E
:100AA80040EB830008BF20F00100704711F0804F31
:100AB80021D113F13872BCBF01F00040704741F4F6
:100AC80080114FEA5252C2F11802C2F1200C10FAFA
:100AD8000CF320FA02F018BF40F001004FEAC123DE
:100AE8004FEAD32303FA0CFC40EA0C0023FA02F382
:100AF8004FEA4303CCE77FEA625307D150EA013358
:100B08001EBF4FF0FE4040F44000704701F0004027
:100B180040F0FE4040F40000704700BF80F0004005
:100B280002E000BF81F0004142001FBF5FEA4103BD
:100B380092EA030F7FEA226C7FEA236C6AD04FEABD
:100B48001262D2EB1363C1BFD21841404840414002
:100B5800B8BF5B42192B88BF704710F0004F40F4B4
:100B6800000020F07F4018BF404211F0004F41F4D0
:100B7800000121F07F4118BF494292EA030F3FD09C
:100B8800A2F1010241FA03FC10EB0C00C3F12003AF
:100B980001FA03F100F0004302D5494260EB40003E
:100BA800B0F5000F13D3B0F1807F06D340084FEAA9
:100BB800310102F10102FE2A51D2B1F1004F40EB9E
:100BC800C25008BF20F0010040EA03007047490006
:100BD80040EB0000013A28BFB0F5000FEDD2B0FAA3
:100BE80080FCACF1080CB2EB0C0200FA0CF0AABFC6
:100BF80000EBC25052421843BCBFD0401843704764
:100C080092F0000F81F4000106BF80F40000013269
:100C1800013BB5E74FEA41037FEA226C18BF7FEA40
:100C2800236C21D092EA030F04D092F0000F08BF82
:100C38000846704790EA010F1CBF0020704712F069
:100C48007F4F04D1400028BF40F00040704712F1A8
:100C580000723CBF00F50000704700F0004343F00D
:100C6800FE4040F4000070477FEA226216BF084643
:100C78007FEA23630146420206BF5FEA412390EA06
:100C8800010F40F4800070474FF0000304E000BFFC
:100C980010F0004348BF40425FEA000C08BF7047AD
:100CA80043F0964301464FF000001CE050EA010271
:100CB80008BF70474FF000030AE000BF50EA010286
:100CC80008BF704711F0004302D5404261EB410173
:100CD8005FEA010C02BF84460146002043F0B64398
:100CE80008BFA3F18053A3F50003BCFA8CF2083ABD
:100CF800A3EBC25310DB01FA02FC634400FA02FCC6
:100D0800C2F12002BCF1004F20FA02F243EB0200CC
:100D180008BF20F00100704702F1200201FA02FC2E
:100D2800C2F1200250EA4C0021FA02F243EB020021
:100D380008BF20EADC7070474FF0FF0C1CEAD05265
:100D48001EBF1CEAD15392EA0C0F93EA0C0F6FD026
:100D58001A4480EA010C400218BF5FEA41211ED004
:100D68004FF0006343EA501043EA5111A0FB0131F0
:100D78000CF00040B1F5000F3EBF490041EAD371C5
:100D88005B0040EA010062F17F02FD2A1DD8B3F141
:100D9800004F40EBC25008BF20F00100704790F0B0
:100DA800000F0CF0004C08BF49024CEA502040EA02
:100DB80051207F3AC2BFD2F1FF0340EAC2507047C8
:100DC80040F400004FF00003013A5DDC12F1190F06
:100DD800DCBF00F000407047C2F10002410021FA78
:100DE80002F1C2F1200200FA02FC5FEA310040F190
:100DF800000053EA4C0308BF20EADC70704792F009
:100E0800000F00F0004C02BF400010F4000F013A40
:100E1800F9D040EA0C0093F0000F01F0004C02BF3B
:100E2800490011F4000F013BF9D041EA0C018FE7AA
:100E38000CEAD15392EA0C0F18BF93EA0C0F0AD0B0
:100E480030F0004C18BF31F0004CD8D180EA0100D6
:100E580000F00040704790F0000F17BF90F0004F6F
:100E6800084691F0000F91F0004F14D092EA0C0F51
:100E780001D142020FD193EA0C0F03D14B0218BFE4
:100E8800084608D180EA010000F0004040F0FE402A
:100E980040F40000704740F0FE4040F440007047C6
:100EA8004FF0FF0C1CEAD0521EBF1CEAD15392EA45
:100EB8000C0F93EA0C0F69D0A2EB030280EA010C35
:100EC80049024FEA402037D04FF0805343EA1111CE
:100ED80043EA10130CF000408B4238BF5B0042F12C
:100EE8007D024FF4000C8B4224BF5B1A40EA0C00D1
:100EF800B3EB510F24BFA3EB510340EA5C00B3EB03
:100F0800910F24BFA3EB910340EA9C00B3EBD10FF0
:100F180024BFA3EBD10340EADC001B0118BF5FEA42
:100F28001C1CE0D1FD2A3FF650AF8B4240EBC2506B
:100F380008BF20F0010070470CF0004C4CEA50202C
:100F48007F32C2BFD2F1FF0340EAC250704740F47B
:100F580000004FF00003013A37E792F0000F00F06D
:100F6800004C02BF400010F4000F013AF9D040EAEB
:100F78000C0093F0000F01F0004C02BF490011F47F
:100F8800000F013BF9D041EA0C0195E70CEAD15377
:100F980092EA0C0F08D142027FF47DAF93EA0C0F5E
:100FA8007FF470AF084676E793EA0C0F04D14B0242
:100FB8003FF44CAF08466EE730F0004C18BF31F0F4
:100FC800004CCAD130F000427FF45CAF31F00043EE
:100FD8007FF43CAF5FE700BF4FF0FF3C06E000BF87
:100FE8004FF0010C02E000BF4FF0010C4DF804CDAA
:100FF8004FEA40024FEA41037FEA226C18BF7FEABA
:10100800236C11D001B052EA530C18BF90EA010FBB
:1010180058BFB2EB030088BFC81738BF6FEAE1704A
:1010280018BF40F0010070477FEA226C02D15FEAE6
:10103800402C05D17FEA236CE4D15FEA412CE1D052
:101048005DF8040B704700BF844608466146FFE719
:101058000FB5FFF7C9FF002848BF10F1000F0FBDFB
:101068004DF808EDFFF7F4FF0CBF012000205DF8F4
:1010780008FB00BF4DF808EDFFF7EAFF34BF012079
:1010880000205DF808FB00BF4DF808EDFFF7E0FF12
:1010980094BF012000205DF808FB00BF4DF808ED63
:1010A800FFF7D2FF94BF012000205DF808FB00BFC6
:1010B8004DF808EDFFF7C8FF34BF012000205DF8A8
:1010C80008FB00BF4FEA4002B2F1FE4F0FD34FF0CA
:1010D8009E03B3EB12620DD94FEA002343F000439D
:1010E80010F0004F23FA02F018BF404270474FF04B
:1010F8000000704712F1610F01D1420205D110F0D2
:10110800004008BF6FF0004070474FF00000704784
:1011180042000ED2B2F1FE4F0BD34FF09E03B3EB59
:10112800126209D44FEA002343F0004323FA02F085
:1011380070474FF00000704712F1610F01D1420271
:1011480002D14FF0FF3070474FF00000704700BFEA
:1011580053B94AB9002908BF00281CBF4FF0FF3116
:101168004FF0FF3000F06AB9ADF1080C6DE904CE1C
:1011780000F006F8DDF804E0DDE9022304B070476A
:101188002DE9F047089D0C46002B4ED194468C451E
:101198008646B2FA82F262D94AB1C2F1200391407E
:1011A80020FA03F30CFA02FC194300FA02FE4FEA94
:1011B8001C471FFA8CF6B1FBF7F44FEA1E4307FBF6
:1011C800141143EA014304FB06F199420AD91CEBC6
:1011D800030304F1FF3080F01281994240F20F813D
:1011E800023C6344591A1FFA8EF3B1FBF7F007FB70
:1011F800101143EA014300FB06F69E420AD91CEB94
:10120800030300F1FF3180F0FC809E4240F2F98038
:10121800634402389B1B40EA044000211DB1D340BF
:101228000022C5E90032BDE8F0878B4205D90DB12F
:10123800C5E9000100210846F5E7B3FA83F1002962
:1012480046D1A34202D39042C0F0F080861A64EBE4
:1012580003030120002DE6D0C5E90063E3E7002A77
:1012680040F09080A1EB0C044FEA1C481FFA8CF761
:101278000121B4FBF8F64FEA1E4308FB164443EA83
:10128800044307FB06F0984208D91CEB030306F158
:10129800FF3402D2984200F2CD8026461C1A1FFA6B
:1012A8008EF3B4FBF8F008FB104443EA044300FB58
:1012B80007F79F4208D91CEB030300F1FF3402D261
:1012C8009F4200F2B0802046DB1B40EA0640A5E7BB
:1012D800C1F120068B4022FA06F71F4320FA06FCCC
:1012E80004FA01F343EA0C03F44000FA01F8380C5D
:1012F8004FEA1349B4FBF0FE1FFA87FC00FB1E44BB
:1013080049EA04440EFB0CF9A14502FA01F20AD994
:101318003C190EF1FF3A80F08480A14540F28180AB
:10132800AEF1020E3C44A4EB09041FFA83F9B4FBA6
:10133800F0F300FB134449EA044403FB0CFCA44506
:1013480007D93C1903F1FF3067D2A44565D9023BA0
:101358003C4443EA0E40A0FB0293A4EB0C049C42DD
:10136800CE469C4651D34ED055B1B8EB0E0364EB34
:101378000C0404FA06F6CB401E43CC40C5E90064D1
:10138800002150E7C2F1200320FA03F10CFA02FC15
:1013980024FA03F394400C434FEA1C4800FA02FE77
:1013A8001FFA8CF7B3FBF8F008FB1031230C43EA63
:1013B800014300FB07F1994208D91CEB030300F134
:1013C800FF362CD299422AD9023863445B1AA4B258
:1013D800B3FBF8F108FB113344EA034401FB07F3BC
:1013E800A34208D91CEB040401F1FF3613D2A3422F
:1013F80011D902396444E41A41EA004139E7044644
:10140800F0E6084606E7C845AED2B9EB020E63EB34
:10141800070C0138A8E73146EDE7034699E730465F
:10142800D4E7D6467FE7634402384DE706462346AD
:1014380008460FE7023E634430E700BF704700BF2D
:1014480080B582B000AF0346FB80FB881846FEF7E4
:10145800E9FF11A3D3E90023FFF74EF802460B4634
:10146800104619464FF000020F4BFFF76FF902467E
:101478000B46104619460AA3D3E90023FEF784FE5B
:1014880002460B4610461946FFF7F8FA0346184677
:101498000837BD4680BD00BFD7A3703D0AF7654039
:1014A800CDCCCCCCCC6C47400000F04080B584B0AB
:1014B80000AF0346FB80FB881846FEF7B3FF4FF0EA
:1014C80000021B4BFFF718F802460B461046194658
:1014D8004FF00002174BFFF739F902460B4610464A
:1014E80019464FF00002144BFEF74EFE02460B461B
:1014F80010461946FFF7C2FA0346FB604FF0000199
:10150800F868FFF7B7FD0346002B02D04FF0000341
:1015180009E00A49F868FFF7CBFD0346002B01D024
:10152800064B00E0FB6818461037BD4680BD00BF7B
:1015380000405F400000F040000018400000C84232
:1015480080B483B000AF78607B681B781B021AB246
:101558007B6801331B781BB213431BB29BB218463E
:101568000C37BD4680BC704780B588B004AF0346D1
:101578000A46FB711346BB71BB79002B02D1E623E7
:10158800FB8108E0BB79012B02D15123FB8102E0EA
:101598004FF0FF3313E08021FA8942F2107302936F
:1015A80001230193FB1D00930123074804F0DEFC8F
:1015B8000346002B02D04FF0FF3300E0002318460B
:1015C8001037BD4680BD00BFD001002080B586B071
:1015D80002AF78603960E5237B73802107F10D0243
:1015E80042F21073009301232D4804F0B1FA034628
:1015F800002B02D04FF0FF334EE0802107F10802A4
:1016080042F2107300930223254804F0B9FB034605
:10161800002B02D04FF0FF333EE007F108031846D5
:10162800FFF78EFF0346FB81FB891846FFF73EFF55
:1016380002467B681A60E0237B73802107F10D0264
:1016480042F2107300930123154804F081FA03460F
:10165800002B02D04FF0FF331EE0802107F1080273
:1016680042F21073009302230D4804F089FB0346ED
:10167800002B02D04FF0FF330EE007F108031846A5
:10168800FFF75EFF0346FB81FB891846FFF7D8FE8C
:1016980002463B681A60002318461037BD4680BDD5
:1016A800D001002080B584B000AF0346FB71194B10
:1016B8001B78BB73FB79002B0FD1164B1B7823F0DB
:1016C8000403DAB2134B1A70124B1B780021184628
:1016D800FFF74AFF0346FB730EE00E4B1B7843F0FF
:1016E8000403DAB20B4B1A700A4B1B780021184618
:1016F800FFF73AFF0346FB7397F90F30002B02DA26
:10170800044ABB7B137097F90F3018461037BD4653
:1017180080BD00BF0000002080B584B002AFFE236A
:10172800FB718021FA1D42F21073009301230748D0
:1017380004F00EFA0346002B02D04FF0FF3300E00E
:10174800002318460837BD4680BD00BFD0010020E1
:1017580080B485B000AF78604FF0B0431A6E4FF098
:10176800B0417B6813430B664FF0B0431A6E7B6839
:101778001340FB60FB6800BF1437BD4680BC704750
:1017880080B483B000AF78604FF0B0431A6E7B68C6
:10179800DB434FF0B04113400B6600BF0C37BD462A
:1017A80080BC704780B500AF234B244A1A60224B97
:1017B8004FF000425A60204B00229A601E4B0022D4
:1017C800DA601D4B00221A611B4B04225A611A4B26
:1017D80000221A76184B00225A76174B00229A7666
:1017E800154B0122DA61144B002283F82020124B9A
:1017F80000225A62104B00229A620F4B002283F893
:101808002C200D4B4FF480521A630B4B07225A635E
:10181800094B07229A63084B002283F83C20064BA9
:101828000022DA64044802F099F80346002B01D03C
:1018380000F01EFD00BF80BD6801002000240140AB
:1018480080B582B000AF78607B681B68054A934218
:1018580003D14FF40070FFF77BFF00BF0837BD4688
:1018680080BD00BF0024014080B582B000AF786021
:101878007B681B68054A934203D14FF40070FFF759
:101888007FFF00BF0837BD4680BD00BF0024014070
:1018980080B400AF034B044A1A6000BFBD4680BC49
:1018A800704700BF680100200024014080B582B065
:1018B80000AF0023FB8000233B60134800F02AF8A8
:1018C80038603B68002B02D10023FB8016E00F4BE9
:1018D8001B884FF6FF7293420BD00C4B1B881A469D
:1018E80040F6E44303FB02F23B68B2FBF3F3FB80F0
:1018F80004E0074A3B68B2FBF3F3FB80FB88184619
:101908000837BD4680BD00BF002000B4AA75FF1F80
:10191800D8084C0080B586B000AF786000237B61A2
:1019280007F1080300221A605A609A60FFF73AFF2D
:101938001A4802F032FE0346002B01D000F098FC52
:101948007B68BB600023FB6000233B6107F1080351
:101958001946124802F03EFB0346002B01D000F066
:1019680087FC0E4802F01AFA0346002B01D000F05B
:101978007FFC4FF0FF31094802F088FA074802F06F
:1019880053FA064802F019FB7861044802F07AF924
:101998007B6918461837BD4680BD00BF6801002026
:1019A80080B485B000AF78604FF0B0439A6C4FF0C8
:1019B800B0417B6813438B644FF0B0439A6C7B68EB
:1019C8001340FB60FB6800BF1437BD4680BC7047FE
:1019D80080B500AF0420FFF7E3FF0120FFF7E0FF29
:1019E800002202210B2002F07EFF0B2002F095FF5F
:1019F80000BF80BD80B586B000AFF860B9607A607E
:101A0800FF23FB75FB68B3F1006F11D30B4B1B6809
:101A18009A020B4B134003F10063013BFA689342AF
:101A280006D37A68B968F86800F05AF80346FB7577
:101A380097F9173018461837BD4680BDE075FF1F67
:101A480000FCFF0380B586B000AFF860B9607A602B
:101A5800FF23FB75BB68B3F1006F11D30B4B1B68F9
:101A68009A020B4B134003F10063013BBA6893429F
:101A780006D37A68B968F86800F03AF90346FB7546
:101A880097F9173018461837BD4680BDE075FF1F17
:101A980000FCFF0380B584B000AF78603960FF2395
:101AA800FB737B68B3F1006F10D30B4B1B689A0272
:101AB8000A4B134003F10063013B7A68934205D354
:101AC8003968786800F032F90346FB7397F90F30EC
:101AD80018461037BD4680BDE075FF1F00FCFF03A8
:101AE80080B590B000AFF860B9607A60002387F8DD
:101AF8003F30FB68BB63BB687B637B683B63FB6809
:101B0800002B0CD0BB68002B09D07B6803F00703BF
:101B1800002B04D1FB6803F00703002B02D06FF001
:101B28000503DAE000F092F9034687F83F3097F9A9
:101B38003F30002B40F0CF8003F03AFB0346002BE8
:101B480040F0C680BB6B03F17842664B1B68990274
:101B5800654B0B40B2FBF3F101FB03F3D31ADB0A2D
:101B6800BB61BA6B7B68134403F17843013B5D4A60
:101B7800126891025C4A0A40B3FBF2F101FB02F2DF
:101B88009B1ADA0ABB69D31A01337B617B69012B83
:101B980005D9BB6BC3F30A03C3F500633B63BB6999
:101BA800FB6289E0FB6A03F58033DB023B61396B3A
:101BB800F86800F025F90346002B31D04B4B1B6821
:101BC800002B03D1FA2387F83F307EE0474B1B6890
:101BD80039694FF40062184600F08AF8434B1A68D6
:101BE800BB6BC3F30A031344796B3A6B92B2184682
:101BF8001AF0F4FA3B694FF40061184600F096F8C1
:101C08000346002B03D0FE2387F83F305DE03B6995
:101C18007B62364B1B683B624FF40063FB6105E057
:101C2800BB6B7B627B6B3B623B6BFB610023BB62E4
:101C380026E03A6ABB6A1344D3E90023796A012093
:101C480003F072FA0346002B13D17B6AD3E9000133
:101C58003A6ABB6A1344D3E90023994208BF904209
:101C680003D0FC2387F83F300EE07B6A08337B62A1
:101C780003E0FC2387F83F3006E0BB6A0833BB6209
:101C8800BA6AFB699A42D4D397F93F30002B1BD12B
:101C9800BA6B3B6B1344BB637A6B3B6B13447B633C
:101CA8007A683B6BD31AB3F5006F28BF4FF4006313
:101CB8003B63FB6A0133FB62BA697B691344FA6AC6
:101CC8009A42FFF46FAF00E000BF03F093FA02E01E
:101CD800FB2387F83F3097F93F3018464037BD4619
:101CE80080BD00BFE075FF1F00FCFF03CC01002092
:101CF80080B586B000AFF860B9607A600023FB75E4
:101D0800FB68002B02D0BB68002B02D16FF00503E3
:101D180008E07B689BB21A46B968F8681AF05EFA60
:101D280097F9173018461837BD4680BD80B588B07A
:101D380000AF786039600023FB770123BB7700236D
:101D48007B617B68BB617B68002B02D16FF0050368
:101D58004EE000F07BF80346FB7797F91F30002B25
:101D680044D103F025FA0346002B3DD10223BB6082
:101D7800BB6903F17842204B1B6899021F4B0B404B
:101D8800B2FBF3F101FB03F3D31ADB0AFB60BA6978
:101D98003B68134403F17843013B174A12689102E8
:101DA800164A0A40B3FBF2F101FB02F29B1ADA0A67
:101DB800FB68D31A01333B6107F1140207F10803EA
:101DC8001146184603F0F6FA0346BB77BB7F002B93
:101DD80007D0BB7F022B01D1012301E06FF0010383
:101DE800FB7703F007FA01E0FB23FB7797F91F3035
:101DF80018462037BD4680BDE075FF1F00FCFF0375
:101E080080B485B000AF786039600023FB600023A0
:101E1800BB6011E07B68D3E90023B3F1FF3F08BF43
:101E2800B2F1FF3F02D00123FB6009E07B68083371
:101E38007B60BB680833BB60BA683B689A42E9D3E9
:101E4800FB6818461437BD4680BC704780B582B021
:101E580000AFFB23FB7103F0ABF90346002B10D155
:101E68000B4B9B690A4A43F040439361084B4CF281
:101E7800FA321A6103F0BEF90346002B01D10023A0
:101E8800FB7197F9073018460837BD4680BD00BF7B
:101E98000040005880B485B000AF78604FF0B04380
:101EA800DA6C4FF0B0417B681343CB644FF0B0431A
:101EB800DA6C7B681340FB60FB6800BF1437BD46D3
:101EC80080BC704780B586B000AF3B1D00221A6009
:101ED8005A609A60DA601A610420FFF7DBFF02207B
:101EE800FFF7D8FF0120FFF7D5FF00224FF48361E9
:101EF800214803F061FD012220211F4803F05CFD09
:101F0800002231214FF0904003F056FD4FF48763D3
:101F18007B600123BB600023FB6003233B613B1D07
:101F28001946154803F01AFB31237B600123BB6077
:101F38000023FB6003233B613B1D19464FF0904093
:101F480003F00CFB4FF400537B604FF40413BB60A9
:101F58000123FB603B1D1946074803F0FFFA0022E6
:101F68000021292002F0BFFC292002F0D6FC00BF86
:101F78001837BD4680BD00BF0004004880B485B056
:101F880000AF78604FF0B043DA6C4FF0B0417B6837
:101F98001343CB644FF0B043DA6C7B681340FB60AB
:101FA800FB6800BF1437BD4680BC704780B485B05D
:101FB80000AF78604FF0B0439A6D4FF0B0417B6846
:101FC80013438B654FF0B0439A6D7B681340FB60F9
:101FD800FB6800BF1437BD4680BC704780B500AFB2
:101FE8001B4B1C4A1A601A4B1B4A5A60184B00229A
:101FF8009A60174B0122DA60154B00221A61144BC4
:1020080000225A61124B00229A61114B0022DA61B8
:102018000F4B00221A620E4803F0FEFC0346002B09
:1020280001D000F025F90021094804F0A9FB034676
:10203800002B01D000F01CF90021054804F0EAFB50
:102048000346002B01D000F013F900BF80BD00BF8C
:10205800D0010020005C0040885D801080B596B0FB
:1020680000AF786007F1440300221A605A609A6052
:10207800DA601A6107F10C033822002118461BF0B8
:1020880009FB7B681B68214A93423AD14FF480735D
:10209800FB604FF44013BB6207F10C03184605F0D0
:1020A80075FE0346002B01D000F0E2F80220FFF78E
:1020B80065FF0420FFF762FF4FF480437B6412231F
:1020C800BB640023FB6400233B6504237B6507F1A5
:1020D800440319460E4803F041FA01237B64122396
:1020E800BB640023FB6400233B6504237B6507F185
:1020F80044031946074803F031FA4FF40000FFF78C
:1021080055FF00BF5837BD4680BD00BF005C00408A
:10211800000400480008004880B483B000AF78602D
:102128004FF0B043D3F8903023F018024FF0B0418D
:102138007B681343C1F8903000BF0C37BD4680BCA4
:102148007047000080B582B000AF0120FFF7AAFAFF
:102158000346FB71FFF7E0FA0346BB7197F90730B6
:10216800002B0AD197F90630002B06D1084B002224
:10217800002102201BF016F806E0064B0022002181
:1021880002201BF00FF800BF00BF0837BD4680BD16
:1021980010D8010828D8010880B500AF01F0F0F97F
:1021A80000F00CF8FFF78EFE09F092F9FFF716FF22
:1021B800FFF7C8FF09F094F9FCE7000080B59AB072
:1021C80000AF07F120034822002118461BF062FAED
:1021D80007F1080300221A605A609A60DA601A61EF
:1021E8005A6104F063FB0020FFF796FF1F4B1B6842
:1021F80023F4C0631D4A43F4007313601B4B1B6830
:1022080003F4C0637B607B6824233B628123FB6209
:1022180001233B6400237B64B023BB640023FB647D
:1022280007F12003184604F08DFE0346002B01D069
:1022380000F01EF84F23BB600023FB6000233B61C6
:1022480000237B610023BB610023FB6107F10803C6
:102258000221184605F0F8F90346002B01D000F0DA
:1022680007F800BF6837BD4680BD00BF00040058AE
:1022780080B400AF72B600BF00BFFDE780B400AF06
:102288004FF0B043D3F890304FF0B04243F40043DE
:10229800C2F8903000BFBD4680BC704780B485B09E
:1022A80000AF78604FF0B0439A6D4FF0B0417B6853
:1022B80013438B654FF0B0439A6D7B681340FB6006
:1022C800FB6800BF1437BD4680BC704780B58CB032
:1022D80000AF3B1D2C22002118461BF0DBF9224BD6
:1022E800224A1A60204B1F229A601F4B00221A6153
:1022F8001D4B00225A611C4B00229A611A4B4FF069
:102308008042DA61184B00221A62174B4FF4807230
:102318005A62154805F054FE0346002B01D0FFF71A
:10232800A7FF114806F04AF90346002B01D0FFF732
:102338009FFF00233B620023BB600023BB614FF07B
:102348000053FB614FF48073FB623B1D002219466A
:10235800054805F0B7FE0346002B01D0FFF788FFBC
:1023680000BF3037BD4680BD240200200028004051
:1023780080B590B000AF786007F1080338220021DB
:1023880018461BF087F97B681B68164A934225D1CB
:102398004FF48033BB604FF48073FB6307F108038D
:1023A800184605F0F3FC0346002B01D0FFF760FF49
:1023B800FFF764FF4FF48060FFF770FF00220021F1
:1023C800022002F090FA022002F0A7FA002200216F
:1023D8002A2002F088FA2A2002F09FFA00BF40372C
:1023E800BD4680BD0028004080B400AF034B0122E9
:1023F800C3F8882000BFBD4680BC70470004005861
:1024080080B400AF00BFBD4680BC704780B400AF49
:1024180000BFBD4680BC704780B500AF01F0D0F862
:10242800FFF7E2FF012004F0D3FA00BF80BD80B5BA
:1024380000AF01F0D3F800F053FF00BF80BD80B5B6
:1024480000AF01F0BDF80121002004F03DFA00BF03
:1024580080BD80B500AF01F0C1F800BF80BD80B479
:1024680000AF00BFBD4680BC704780B400AF00BF5E
:10247800FDE780B400AF00BFFDE780B400AF00BF48
:10248800FDE780B400AF00BFFDE780B400AF00BF38
:10249800FDE780B400AF00BFBD4680BC704780B484
:1024A80000AF00BFBD4680BC704780B400AF00BF1E
:1024B800BD4680BC704780B400AF00BFBD4680BC3D
:1024C8007047000080B500AF024806F0B3F800BFBF
:1024D80080BD00BF2402002080B500AF024802F092
:1024E800B3FC00BF80BD00BF0403002080B500AF6F
:1024F800024806F0EDFE00BF80BD00BF700200205C
:1025080080B500AF4FF4005003F06EFA00BF80BDF5
:1025180080B500AF024805F03DFF00BF80BD00BF99
:102528002402002080B500AF024806F0F1FB00BF8E
:1025380080BD00BF5C02002080B485B000AF786029
:102548004FF0B0435A6E4FF0B0417B6813434B666F
:102558004FF0B0435A6E7B681340FB60FB6800BFC6
:102568001437BD4680BC704780B500AF064B0822C3
:102578001A60054806F04AF90346002B01D0FFF718
:1025880077FE00BF80BD00BF5C02002080B582B02E
:1025980000AF78600120FFF7CFFF00220021322032
:1025A80002F0A1F9322002F0B8F900BF0837BD46A1
:1025B80080BD80B483B000AF78604FF0B0439B68B3
:1025C80023F400424FF0B0417B6813438B6000BF97
:1025D8000C37BD4680BC704780B400AF024B1B6807
:1025E8001846BD4680BC70478075FF1F80B400AF99
:1025F800034B1B68DBB21846BD4680BC704700BF62
:102608008475FF1F80B400AF034B1B681B0A184674
:10261800BD4680BC704700BF8475FF1F80B500AF02
:102628000020FFF7C6FF1AF0FFFA0E4B01221A70BE
:1026380000F08CF91AF088FD0B481AF033FE0B4BAA
:102648004FF400421A6102201AF03AFEFFF720F90F
:1026580000F016FA19F01CFD0121012019F058FDAF
:1026680000BF80BD680200204528000800400058CF
:1026780080B500AF19F07CFD00BF80BD80B582B089
:1026880000AF0023FB71FFF711F90346BB80BB883D
:1026980040F6B832934202D9FE23FB7114E0BB889E
:1026A800B3F5E16F02D20023FB710DE0BB88A3F5FF
:1026B800E1631A461346DB019B1A5B001A46054B79
:1026C800A3FB0223DB09FB71FB7918460837BD46DB
:1026D80080BD00BFB5814E1B80B588B000AF002318
:1026E800FB833B1D184600F08DF9BB681846FEF7C2
:1026F800E9FC0346FB83B7F91E3018462037BD4670
:1027080080BD90B587B000AF786000237B61FFF78C
:1027180063FF78617B69B3F1FF3F38D100F06CFF4C
:10272800044600F07DFF034623443B6100F06EFF42
:10273800F8603B691A0E7B680733D2B21A703B699E
:102748001A0C7B680633D2B21A703B691A0A7B6886
:102758000533D2B21A707B6804333A69D2B21A7060
:10276800FB681A0E7B680333D2B21A70FB681A0C26
:102778007B680233D2B21A70FB681A0A7B6801338D
:10278800D2B21A70FB68DAB27B681A7031E07B68E3
:1027980007337A69D2B21A707B691A0A7B680633E2
:1027A800D2B21A707B691A0C7B680533D2B21A70E0
:1027B8007B691A0E7B680433D2B21A70FFF716FFD2
:1027C80078617B6803337A69D2B21A70FFF71AFF0F
:1027D80078617B6802337A69D2B21A707B691A0A07
:1027E8007B680133D2B21A707B691B0CDAB27B6842
:1027F8001A7000BF1C37BD4690BD90B583B000AFBE
:102808007860FFF7E9FE02467B681A607B681B6800
:10281800B3F1FF3F0DD100F0EFFE044600F0F6FEE5
:1028280003465C4000F0FCFE034684EA03027B6832
:102838001A6000BF0C37BD4690BD000080B586B059
:1028480002AF7860396007F10803184619F0A0FD57
:10285800BB68B7F90C200092074A1021786800F08D
:102868001DF87868FDF784FC03469AB23B681A8025
:1028780000BF1037BD4680BD40D8010880B500AF05
:102888000121022019F014FC00BF80BD80B500AF03
:102898000021022019F00CFC00BF80BD0CB480B5EB
:1028A80084B000AF7860396007F11C03FB603968B9
:1028B800FB68BA69786819F0D7FE00BF1037BD46C3
:1028C800BDE8804002B0704780B483B000AF786044
:1028D800002318460C37BD4680BC704780B582B0CF
:1028E80000AF00237B60064B1B78002B02D000F062
:1028F80093F978607B6818460837BD4680BD00BFED
:102908006802002080B582B000AF78607B68184606
:1029180000F009FA00BF0837BD4680BD80B485B015
:1029280000AF78604FF0B043DA6C4FF0B0417B688D
:102938001343CB644FF0B043DA6C7B681340FB6001
:10294800FB6800BF1437BD4680BC704780B586B0B1
:1029580000AF00F06FFE00F073FE00F077FE3B1D45
:1029680000221A605A609A60DA601A610123BB601B
:102978000023FB6003233B610120FFF7CFFF022008
:10298800FFF7CCFF0220FFF7C9FF0220FFF7C6FFC1
:1029980001237B603B1D19464FF0904002F0DEFD9D
:1029A8004FF480637B603B1D1946154802F0D6FD45
:1029B80008237B603B1D1946114802F0CFFD102308
:1029C8007B603B1D19460E4802F0C8FD002201211C
:1029D8004FF0904002F0F0FF00224FF48061084869
:1029E80002F0EAFF00220821054802F0E5FF002274
:1029F8001021034802F0E0FF00BF1837BD4680BD34
:102A08000004004880B586B000AF7860164BFB60C4
:102A1800164BBB60164B7B6107F1080207F10C03EC
:102A280011461846FEF7D2FD0346FB7497F913309A
:102A3800002B05D00F4B0122002102201AF0B2FB17
:102A4800FA687B689A60BA687B685A607B687A69BA
:102A58001A607B68084ADA607B68084A1A610023B2
:102A680018461837BD4680BD000048420000904116
:102A780000007A444CD801080D093E00AB0305005C
:102A880080B483B000AF00237B60002318460C3766
:102A9800BD4680BC704780B400AF00BFBD4680BC57
:102AA800704780B483B000AF78607B689B68184635
:102AB8000C37BD4680BC704780B582B000AF00239C
:102AC800FB71144B1B7883F00103DBB2002B1BD086
:102AD800114B4FF0FF321A63FFF7F8FB00F056F87E
:102AE8004FF480710C4805F0F9FB0B4B4FF0FF32A7
:102AF8001A63094805F030FD002000F0D3F900F012
:102B08005FF8044B01221A70FB7918460837BD4656
:102B180080BD00BF690200202402002080B58EB06D
:102B280000AF7860002387F8373007F108032C22BC
:102B3800002118461AF0AEFD00F028F8114B1B686A
:102B48007A6813447B6000237B627B68DB43FB600D
:102B58000023FB614FF000533B624FF480733B63EB
:102B680007F1080301221946074805F0ABFA0346A6
:102B7800002B01D0FFF77CFB97F837301846383721
:102B8800BD4680BD6C0200202402002080B582B0C2
:102B980000AF0023FB71084B0122DA654FF4807106
:102BA800064805F09BFB054B4FF0FF321A63FB7993
:102BB80018460837BD4680BD002800402402002082
:102BC80080B500AF00F08EF90346034A1360024B4C
:102BD8001B68184680BD00BF6C02002080B400AF9F
:102BE800024B1B681846BD4680BC70476C0200202B
:102BF80080B582B000AF00237B6000F073F9024615
:102C0800044B1B68D31A7B607B6818460837BD469F
:102C180080BD00BF6C02002080B582B000AF0023E9
:102C28007B60064B1B78002B02D000F05BF97860C4
:102C38007B6818460837BD4680BD00BF6902002082
:102C480080B483B000AF00237B6003237B607B6884
:102C580018460C37BD4680BC7047B0B584B000AF8D
:102C680078600021F960796800200A460346950DCE
:102C780094024FF47A724FF0000320462946FEF77B
:102C880067FA02460B461346FB60FB681846103786
:102C9800BD46B0BD2DE9B00F85B000AF786000210A
:102CA800F960796800200C460546204629464FF011
:102CB800000A4FF0000B4FEA411B4BEAD06B4FEA7A
:102CC800401A50465946021B61EB05034FF00000BD
:102CD8004FF00001990041EA9271900002460B46BC
:102CE80012EB040843EB05094FF000024FF0000314
:102CF8004FEAC90343EA58734FEAC8029046994617
:102D0800404649464FF000024FF00003820A42EA6B
:102D180081528B0A1346FB60FB6818461437BD4680
:102D2800BDE8B00F704780B584B000AF78607868B0
:102D3800FFF793FFF86000F0D5F8B86000E000BF37
:102D480000F0D0F80246BB68D31AFA689A42F6D85F
:102D580000BF00BF1037BD4680BD80B582B000AF50
:102D680078601AF0AFF800BF0837BD4680BD80B55F
:102D780084B000AF786000F0A5F8F860FB68013314
:102D8800184600F08FF800BF1037BD4680BD2DE90A
:102D9800B04F8CB000AF78610023FB6200F0A2F85E
:102DA800B86200F08FF878627B6A0022BB60FA6034
:102DB8004FF000024FF00003B9680B000022B96A17
:102DC80000200C46054612EB040843EB0509C7E949
:102DD8000689D7E906014FF000024FF00003820A86
:102DE80042EA81528B0A1346FB62BB6900223B60B0
:102DF8007A603B68C3F3090A4FF0000BC7E906ABDA
:102E0800BB691846FFF746FF03469AB27B691A80EA
:102E1800FB6A18463037BD46BDE8B08F80B582B032
:102E280000AF78607A680021034805F027FC00BFEE
:102E38000837BD4680BD00BF2402002080B582B09F
:102E480000AF78607A680121034805F017FC00BFDD
:102E58000837BD4680BD00BF2402002080B582B07F
:102E680000AF00237B600021044805F01FFC786058
:102E78007B6818460837BD4680BD00BF2402002085
:102E880080B582B000AF00237B600121044805F0C3
:102E98000DFC78607B6818460837BD4680BD00BFCA
:102EA8002402002080B582B000AF78607A680221E1
:102EB800034805F0E3FB00BF0837BD4680BD00BFEF
:102EC8002402002080B582B000AF0221044805F03A
:102ED800EDFB78607B6818460837BD4680BD00BFAB
:102EE8002402002080B582B000AF0B48FFF7D9FD5F
:102EF800786003E00848FFF7D4FD78600648FFF7DC
:102F0800D0FD02467B689342F4D17B68DB431846C8
:102F18000837BD4680BD00BF0028004080B485B09A
:102F280000AF78604FF0B043DA6C4FF0B0417B6887
:102F38001343CB644FF0B043DA6C7B681340FB60FB
:102F4800FB6800BF1437BD4680BC704780B485B0AD
:102F580000AF78604FF0B0431A6E4FF0B0417B6815
:102F680013430B664FF0B0431A6E7B681340FB6047
:102F7800FB6800BF1437BD4680BC704780B483B07F
:102F880000AF78604FF0B0431A6E7B68DB434FF0B8
:102F9800B04113400B6600BF0C37BD4680BC70477C
:102FA80080B500AF224B234A1A60214B4FF4E1321F
:102FB8005A601F4B00229A601D4B0022DA601C4B9E
:102FC80000221A611A4B0C225A61194B00229A618D
:102FD800174B0022DA61164B00221A62144B0022AA
:102FE8005A62134B00229A62114806F054F80346BD
:102FF800002B01D0FFF73CF900210D4808F07DF9BE
:103008000346002B01D0FFF733F90021084808F0E8
:10301800B2F90346002B01D0FFF72AF9044808F05B
:1030280031F90346002B01D0FFF722F900BF80BD1C
:10303800700200200038014080B596B000AF78607B
:1030480007F1440300221A605A609A60DA601A6134
:1030580007F10C033822002118461AF01BFB7B6885
:103068001B682F4A934256D10123FB604FF440332B
:103078003B6107F10C03184604F088FE0346002B59
:1030880001D0FFF7F5F84FF48040FFF75FFF02200B
:10309800FFF744FFC0237B640223BB640023FB6467
:1030A80003233B6507237B6507F1440319461D4845
:1030B80002F054FA1C4B1D4A1A601B4B12225A602C
:1030C800194B10229A60184B0022DA60164B8022A6
:1030D8001A61154B00225A61134B00229A61124B58
:1030E8000022DA61104B00221A620F4801F032FC0C
:1030F8000346002B01D0FFF7BBF87B680A4ADA6762
:10310800094A7B68936200220221242001F0EBFB2C
:10311800242001F002FC00BF5837BD4680BD00BF27
:103128000038014000040048040300200800024061
:1031380080B582B000AF78607B681B680B4A934209
:103148000FD14FF48040FFF719FFC021084802F063
:1031580065FB7B68DB6F184601F0A4FC242001F0B6
:10316800EAFB00BF0837BD4680BD00BF00380140FC
:103178000004004880B483B000AF78604FF0B043DB
:103188001A6C4FF0B0417B6813430B6400BF0C37D7
:10319800BD4680BC704780B483B000AF78604FF004
:1031A800B0431A6C7B68DB434FF0B04113400B64AB
:1031B80000BF0C37BD4680BC7047000080B483B0A8
:1031C80000AF7860064BD3F8802005497B6813432D
:1031D800C1F8803000BF0C37BD4680BC704700BFC7
:1031E8000008005880B582B000AF7860074A7B6855
:1031F8001360FEF7EDFBFFF7D3FE4FF08060FFF79B
:10320800DDFF002318460837BD4680BD680300204F
:1032180080B500AF4FF48040FFF7ACFF4FF480401B
:10322800FFF7B9FF0448FFF783FF0F2001F083FB86
:103238000023184680BD00BF7002002080B582B010
:1032480000AF78600B467B807B881A467968044813
:1032580005F0BEFF002318460837BD4680BD00BFF5
:103268007002002080B584B000AF7860194A7B688E
:1032780013604FF40013BB6007F1080393E80600DE
:10328800154807F072FF00BF134B1B68DB6903F496
:103298008033B3F5803FF7D000BF0F4B1B68DB6965
:1032A80003F48003B3F5800FF7D10B4B1B689A68C2
:1032B800094B1B6842F480029A60074807F0B0FF88
:1032C80001220649044805F037FF00231846103745
:1032D800BD4680BD6C0300207002002064030020FE
:1032E80080B500AF084805F0D6FE0346002B01D094
:1032F800FEF7BEFF054801F02DFB0346002B01D069
:10330800FEF7B6FF00BF80BD700200200403002056
:1033180080B582B000AF78607B681B68054A93422D
:1033280003D1054B1B680020984700BF0837BD46EE
:1033380080BD00BF003801406803002080B582B01E
:1033480000AF78607B681B680D4A934213D10D4B20
:103358001B68002B0AD07B68D3F89030002B05D16E
:10336800084B1B680022012107489847012206499B
:10337800786805F0E1FE00BF0837BD4680BD00BF94
:10338800003801406C030020640300200D48854686
:10339800FFF781FB0C480D490D4A002302E0D45881
:1033A800C4500433C4188C42F9D30A4A0A4C002387
:1033B80001E013600432A242FBD31AF073F9FEF75E
:1033C800EBFEFEE700000120000000204C01002079
:1033D8003CE801084C01002060220020FEE780B58F
:1033E80086B000AF3B1D00221A605A609A60DA600E
:1033F8001A6110237B600123BB600023FB60032359
:103408003B613B1D19464FF0904002F0A7F820237E
:103418007B603B1D19464FF0904002F09FF8002258
:1034280020214FF0904002F0C7FA002210214FF0FF
:10343800904002F0C1FA002318461837BD4680BDF7
:1034480080B582B000AF0346FB71FB79032B3FD8F0
:1034580001A252F823F000BF713400088B34000831
:10346800A5340008BF340008002210214FF0904016
:1034780002F0A2FA002220214FF0904002F09CFABC
:1034880027E0012210214FF0904002F095FA002227
:1034980020214FF0904002F08FFA1AE0012210210B
:1034A8004FF0904002F088FA012220214FF090401E
:1034B80002F082FA0DE0002210214FF0904002F055
:1034C8007BFA012220214FF0904002F075FA00E0CB
:1034D80000BF002318460837BD4680BD80B400AF42
:1034E80002231846BD4680BC704780B400AF012354
:1034F8001846BD4680BC704780B400AF012318460B
:10350800BD4680BC704780B485B000AF0346FB71F0
:10351800FB79002B02D10F23FB6001E01623FB602F
:10352800FB6818461437BD4680BC704780B400AFAE
:10353800044B5B68034A23F00103536000BFBD4698
:1035480080BC7047002004E080B400AF044B5B6887
:10355800034A23F00203536000BFBD4680BC704796
:10356800002004E080B400AF044B5B68034A23F0FA
:103578000403536000BFBD4680BC7047002004E0D0
:1035880080B582B000AF0023FB71032001F0A0F9E1
:1035980004F01EFA0346094A13600F20FFF794F956
:1035A8000346002B02D00123FB7101E0FEF757FF11
:1035B800FB7918460837BD4680BD00BF04000020CF
:1035C80080B400AF044B1B68034A23F00203136066
:1035D80000BFBD4680BC704710E000E080B400AF7B
:1035E800044B1B68034A43F00203136000BFBD4647
:1035F80080BC704710E000E080B400AF024B1B684D
:103608001846BD4680BC70479075FF1F80B400AF58
:10361800024B1B681846BD4680BC70479475FF1F57
:1036280080B400AF024B1B681846BD4680BC70478B
:103638009875FF1F80B500AFFFF778FF00BF80BD0A
:1036480080B500AFFFF780FF00BF80BD80B500AF39
:10365800FFF788FF00BF80BD80B483B000AF7860FB
:1036680039607B681B6823F0E0723B681A437B680B
:103678001A6000BF0C37BD4680BC704780B483B069
:1036880000AF78607B681B6803F0E07318460C375E
:10369800BD4680BC704780B485B000AFF860B960A3
:1036A8007A60FB685A69BB6803F00403072101FAD2
:1036B80003F3DB431A40BB6803F00403796801FA9B
:1036C80003F31A43FB685A6100BF1437BD4680BC38
:1036D800704780B483B000AF786039607B685A69FE
:1036E8003B6803F00403072101FA03F31A403B681F
:1036F80003F0040322FA03F318460C37BD4680BCD6
:10370800704780B483B000AF78607B68DB6803F4EF
:103718004063002B01D1012300E0002318460C3739
:10372800BD4680BC704780B485B000AFF860B96012
:103738007A60FB689A6ABB6803F01F030F2101FADD
:1037480003F3DB431A407B689B0E03F00F01BB6851
:1037580003F01F0301FA03F31A43FB689A6200BFE0
:103768001437BD4680BC704780B483B000AF786022
:1037780039607B689A6A3B68C3F311031A437B6814
:103788009A6200BF0C37BD4680BC704780B483B0D6
:1037980000AF786039607B689A6A3B68C3F31103AD
:1037A800DB431A407B689A6200BF0C37BD4680BC79
:1037B800704780B485B000AFF860B9607A60FB6884
:1037C8005A69BB681B02DB431A40BB6819027B6855
:1037D8000B4023F07C4323F0FF031A43FB685A6134
:1037E80000BF1437BD4680BC704780B483B000AFBB
:1037F80078607B689B6823F0104323F0170343F03D
:1038080080527B689A6000BF0C37BD4680BC704709
:1038180080B483B000AF78607B689B6823F0104366
:1038280023F017037A68936000BF0C37BD4680BC4D
:10383800704780B483B000AF78607B689B6803F002
:103848008053B3F1805F01D1012300E000231846C3
:103858000C37BD4680BC704780B483B000AF786039
:103868007B689B6823F0004323F0170343F00102B1
:103878007B689A6000BF0C37BD4680BC704780B437
:1038880083B000AF78607B689B6823F0004323F027
:10389800170343F002027B689A6000BF0C37BD46ED
:1038A80080BC704780B483B000AF78607B689B6849
:1038B80003F00103012B01D1012300E00023184686
:1038C8000C37BD4680BC704780B483B000AF7860C9
:1038D8007B689B6803F00203022B01D1012300E0FF
:1038E800002318460C37BD4680BC704780B483B0AF
:1038F80000AF78607B689B6823F0004323F01703D0
:1039080043F004027B689A6000BF0C37BD4680BC58
:10391800704780B483B000AF78607B689B6823F001
:10392800004323F0170343F010027B689A6000BF3E
:103938000C37BD4680BC704780B483B000AF786058
:103948007B689B6803F00403042B01D1012300E08A
:10395800002318460C37BD4680BC704780B588B038
:1039680000AF78600023FB770023BB6100237B61F5
:103978000023FB607B68002B01D101237EE17B687B
:103988001B69002B7B689B6D002B09D17868FDF7BC
:1039980057FF7B680022DA657B68002283F8542091
:1039A8007B681B681846FFF744FF0346002B15D1B8
:1039B8007B681B681846FFF718FF9E4B1B689B091E
:1039C8009D4AA2FB03239B0901335B00FB6002E0D5
:1039D800FB68013BFB60FB68002BF9D17B681B6827
:1039E8001846FFF726FF0346002B0DD17B689B6D19
:1039F80043F010027B689A657B68DB6D43F0010237
:103A08007B68DA650123FB777B681B681846FFF73C
:103A180093FF38617B689B6D03F01003002B40F027
:103A280024813B69002B40F020817B689B6D23F447
:103A3800817343F002027B689A657B681B681846AD
:103A4800FFF730FF0346002B40F0A7807B689A6899
:103A58007B681B7E9B031A437B685B7EDB031A43F0
:103A68007B689B7E5B0313437A68126B002A02D043
:103A78004FF4805200E000221A437B68DB681A4347
:103A88007B681B69002B04DA7B681B6923F0004301
:103A980001E04FF400131A437B6893F82C305B0065
:103AA8001343BA691343BB617B6893F82030012B39
:103AB80014D17B689B7E002B04D1BB6943F480330F
:103AC800BB610BE07B689B6D43F020027B689A65C5
:103AD8007B68DB6D43F001027B68DA657B685B6AB3
:103AE800002B09D07B685B6A03F4E0727B689B6AF1
:103AF8001343BA691343BB617B681B68DB6823F413
:103B0800FE3323F4FF737A681268B9690B43D360F4
:103B18007B685B6803F040427B68DB6C13437A691F
:103B280013437B617B6893F83C30012B11D17B6890
:103B38005B6803F040427B681B6C1A437B685B6CD4
:103B48001A437B689B6C1A437B69134343F0010358
:103B58007B617B681B681A69384B13407A68126866
:103B680079690B4313617B685B68B3F1404F14D0EC
:103B78007B685B68B3F1804F0FD07B685B68B3F1FB
:103B8800004F0AD02E4B1B6823F470127B685B68C9
:103B980003F470132A4913430B607B6818687B6829
:103BA8005B6B1A460021FFF776FD7B6818687B6817
:103BB8009B6B1A462349FFF76EFD7B681B69002B38
:103BC80008D17B681B689A6A7B681B6862F00F02E1
:103BD8009A6217E07B681B69B3F5001F12D17B68F6
:103BE8001B689B6A7B68DB69013B9B0003F01C0335
:103BF8006FF00F0202FA03F17B681A6E7B681B688C
:103C08000A439A627B681B6800211846FFF761FD2A
:103C180002467B685B6B9A4216D17B680022DA65A4
:103C28007B689B6D23F0030343F001027B689A6570
:103C380023E000BF04000020632D3E0502FCFF1FA7
:103C48000827014004FFFF037B689B6D23F01203E4
:103C580043F010027B689A657B68DB6D43F00102D4
:103C68007B68DA650123FB7707E07B689B6D43F08F
:103C780010027B689A650123FB77FB7F1846203783
:103C8800BD4680BD80B584B000AF78607B68002BEE
:103C980001D101237AE07B689B6D43F002027B68C7
:103CA8009A65786800F0CEFA0346FB73FB7B002B1D
:103CB8000FD1786800F092FB0346FB73FB7B002B67
:103CC80002D17B6801229A657B681B681846FFF75A
:103CD8009FFD7B681B685B687A68126823F46773CA
:103CE80023F0030353607B681B6840F29F321A601D
:103CF8007B681B68D9687B681A68264B0B40D360C1
:103D08007B681B685A697B681B6822F007025A6146
:103D18007B681B689B6A7B681B6800229A627B68C9
:103D28001B681A6A7B681B6802F0F0221A627B68BB
:103D38001B685A6A7B681B6802F0F0225A627B682B
:103D48001B68DA6A7B681B6802F0F022DA627B681B
:103D58001B681A697B681B6822F040421A610E4B87
:103D68001B680D4A23F0FE7313607868FDF77CFD2D
:103D78007B6800221A667B680022DA657B6800226D
:103D88009A657B68002283F85420FB7B184610371D
:103D9800BD4680BD00023E830827014080B584B03F
:103DA80000AF78607B681B681846FFF7C5FD0346BF
:103DB800002B32D17B6893F85430012B01D10223B8
:103DC8002EE07B68012283F85420786800F080FA9E
:103DD8000346FB73FB7B002B1AD17B689B6D23F496
:103DE800706323F0010343F480727B689A657B68F3
:103DF8000022DA657B681B681C221A607B68002237
:103E080083F854207B681B681846FFF76FFD06E0AF
:103E18007B68002283F8542001E00223FB73FB7BBC
:103E280018461037BD4680BD80B584B000AF7860B5
:103E38007B6893F85430012B01D1022322E07B6880
:103E4800012283F85420786800F0FCF90346FB73DC
:103E5800FB7B002B11D1786800F0C0FA0346FB7396
:103E6800FB7B002B09D17B689B6D23F4807323F0C7
:103E7800010343F001027B689A657B68002283F89E
:103E88005420FB7B18461037BD4680BD80B584B0F2
:103E980000AF786039607B685B69082B02D1082322
:103EA800FB6010E07B681B68DB6803F00103002BF4
:103EB80007D07B689B6D43F020027B689A650123DD
:103EC80077E00423FB60FEF709FDB86021E03B685A
:103ED800B3F1FF3F1DD0FEF701FD0246BB68D31AC0
:103EE8003A689A4202D33B68002B12D17B681B6860
:103EF8001A68FB681340002B0BD17B689B6D43F05D
:103F080004027B689A657B68002283F854200323A7
:103F18004FE07B681B681A68FB681340002BD6D0FB
:103F28007B689B6D43F400727B689A657B681B68AD
:103F38001846FFF7E6FB0346002B31D07B689B7ED3
:103F4800002B2DD17B681B681B6803F00803082B26
:103F580026D17B681B681846FFF7EEFC0346002B4A
:103F680012D17B681B685A687B681B6822F00C02B8
:103F78005A607B689B6D23F4807323F0010343F040
:103F880001027B689A650BE07B689B6D43F0200219
:103F98007B689A657B68DB6D43F001027B68DA65B4
:103FA8007B681B7E002B03D17B681B680C221A6080
:103FB800002318461037BD4680BD80B483B000AFDB
:103FC80078607B681B681B6C18460C37BD4680BC44
:103FD8007047000080B588B000AF78603960002372
:103FE800FB770023BB607B681B69B3F1004F7B68DC
:103FF80093F85430012B01D1022310E17B68012290
:1040080083F854207B681B681846FFF795FC034625
:10401800002B40F0F7803B685B68022B00F0B18012
:104028007B681B69B3F1004F04D07B681B697E4A2B
:10403800934208D17B681A683B681B68194610468A
:10404800FFF792FB41E07B681A6E3B685B6803F000
:104058001F030F2101FA03F3DB431A403B681B6877
:10406800C3F31103002B05D13B681B689B0E03F0BB
:104078001F0311E03B681B683B613B6993FAA3F39C
:10408800FB60FB687B617B69002B01D1202303E087
:104098007B69B3FA83F3DBB23968496801F01F0121
:1040A8008B401A437B681A663B685B689B085A1CFE
:1040B8007B68DB699A4208D87B6818683B6859684E
:1040C8003B681B681A46FFF72EFB7B6818683B683D
:1040D80019683B689B681A46FFF76BFB3B681B68CF
:1040E800002B80F297805148FFF7C8FAB8613B6807
:1040F8001B684F4A934220D1BB6903F40003002B8D
:104108001BD1BB6943F4000319464848FFF7A4FADA
:10411800484B1B689B09484AA2FB03239B095A1C6E
:1041280013465B0013449B00BB6002E0BB68013B85
:10413800BB60BB68002BF9D16CE03B681B683F4A49
:1041480093420CD1BB6903F08073002B07D1BB6984
:1041580043F0807319463548FFF77EFA5AE03B680A
:104168001B68374A934255D1BB6903F48003002B7F
:1041780050D1BB6943F4800319462C48FFF76CFA09
:1041880048E07B681B69B3F1004F04D07B681B696A
:10419800254A934207D17B681A683B681B68194611
:1041A8001046FFF7F3FA3B681B68002B32DA1F480A
:1041B800FFF764FAB8613B681B681D4A934207D150
:1041C800BB6923F4000319461848FFF745FA21E0B4
:1041D8003B681B68194A934207D1BB6923F0807377
:1041E80019461248FFF738FA14E03B681B68144A6E
:1041F80093420FD1BB6923F4800319460B48FFF79C
:104208002BFA07E07B689B6D43F020027B689A6578
:104218000123FB777B68002283F85420FB7F184634
:104228002037BD4680BD00BF04000080082701403C
:10423800001000B004000020632D3E05004000B8C7
:10424800002000B480B584B000AF78607B681B683C
:104258001846FFF771FB0346002B33D07B681B68B9
:104268001846FFF731FB0346002B04D17B681B6817
:104278001846FFF74EFBFEF731FBF8601BE0FEF730
:104288002DFB0246FB68D31A022B14D97B681B68E6
:104298009B6803F00403002B0DD07B689B6D43F0F3
:1042A80010027B689A657B68DB6D43F001027B68CE
:1042B800DA65012307E07B681B689B6803F0040349
:1042C800002BDCD1002318461037BD4680BD000006
:1042D80080B584B000AF78600023BB607B681B6842
:1042E8001846FFF7DFFA0346002B69D17B681B6885
:1042F8009A68364B1340002B0DD07B689B6D43F0BA
:1043080010027B689A657B68DB6D43F001027B686D
:10431800DA65012355E07B681B681846FFF79CFAAD
:104328002B48FFF7ABF9034603F40003002B0FD02B
:10433800284B1B689B09284AA2FB03239B090133CE
:10434800BB6002E0BB68013BBB60BB68002BF9D1D6
:104358007B685B7E012B33D0FEF7C0FAF86028E05B
:104368007B681B681846FFF79DFA0346002B04D1AB
:104378007B681B681846FFF76FFAFEF7AFFA02462C
:10438800FB68D31A022B14D97B681B681B6803F0DF
:104398000103012B0DD07B689B6D43F010027B68F5
:1043A8009A657B68DB6D43F001027B68DA6501235F
:1043B80007E07B681B681B6803F00103012BCFD162
:1043C800002318461037BD4680BD00BF1700008087
:1043D8000827014004000020632D3E0580B584B005
:1043E80000AF78607B681B681846FFF76DFAF860C5
:1043F8007B681B681846FFF755FA0346002B47D021
:10440800FB68002B44D17B681B689B6803F005039D
:10441800012B0CD17B681B681846FFF730FA7B68C4
:104428001B6803221A60FEF759FAB86029E07B6816
:104438009B6D43F010027B689A657B68DB6D43F0E7
:1044480001027B68DA65012323E0FEF747FA02469A
:10445800BB68D31A022B14D97B681B689B6803F0CE
:104468000103002B0DD07B689B6D43F010027B6825
:104478009A657B68DB6D43F001027B68DA6501238E
:1044880007E07B681B689B6803F00103002BDCD105
:10449800002318461037BD4680BD80B483B000AFF6
:1044A800786039607B68D3F8B43023F07F023B68CA
:1044B8001A437B68C3F8B42000BF0C37BD4680BCE4
:1044C800704780B483B000AF78607B68D3F8B430AD
:1044D80003F07F0318460C37BD4680BC704780B494
:1044E80083B000AF78607B689B6823F0004323F0BB
:1044F800170343F001027B689A6000BF0C37BD4682
:1045080080BC704780B483B000AF78607B689B68DC
:1045180023F0004323F0170343F002027B689A60FC
:1045280000BF0C37BD4680BC704780B483B000AF75
:1045380078607B689B6803F00103012B01D101239C
:1045480000E0002318460C37BD4680BC704780B495
:1045580083B000AF78607B689B6823F0004323F04A
:10456800170343F000427B689A6000BF0C37BD46D2
:1045780080BC704780B483B000AF78607B689B686C
:1045880003F00043B3F1004F01D1012300E0002301
:1045980018460C37BD4680BC704780B588B000AF60
:1045A80078600023BB600023BB617B6893F85430BC
:1045B800012B01D10223B9E07B68012283F8542042
:1045C8007868FFF70BFF0346FB757B681B68184686
:1045D800FFF7ABFF0346002B40F09D807B689B6D87
:1045E80023F4817343F002027B689A657B681B6839
:1045F800DA6848F2030313403B617B681B68DB6899
:104608007A68126823F4004323F00303D36000237D
:10461800FB612EE07B681B681846FFF798FF14E0E3
:10462800BB680133BB60BB68B3F52E3F0DD37B6815
:104638009B6D23F0120343F010027B689A657B6838
:10464800002283F85420012370E07B681B68184619
:10465800FFF790FF0346002BE2D17B681B681846E2
:10466800FFF72FFF0246BB691344BB61FB690133A7
:10467800FB61FB69072BCDD9BA69FB69B2FBF3F380
:10468800BB617B681B681846FFF729FF7B681B68BE
:10469800B9691846FFF701FF7B681B681846FFF7E2
:1046A80031FFFEF71BF9F8601CE0FEF717F9024628
:1046B800FB68D31A022B15D97B681B681846FFF7CD
:1046C80034FF0346002B0DD07B689B6D43F010022E
:1046D8007B689A657B68DB6D43F001027B68DA656D
:1046E800012323E07B681B681846FFF71EFF03467B
:1046F800002BDAD17B681B68D9687B681B683A692C
:104708000A43DA607B689B6D23F0030343F00102E0
:104718007B689A6505E07B689B6D43F010027B68B7
:104728009A657B68002283F85420FB7D1846203761
:10473800BD4680BD80B485B000AF78607B6803F06B
:104748000703FB600C4BDB68BB60BA684FF6FF03DE
:104758001340BB60FB681A02BB68134343F0BF6396
:1047680043F40033BB60044ABB68D36000BF14370E
:10477800BD4680BC704700BF00ED00E080B400AFCC
:10478800044BDB681B0A03F007031846BD4680BCD0
:10479800704700BF00ED00E080B483B000AF03466F
:1047A800FB7197F90730002B0BDBFB7903F01F0235
:1047B800064997F907305B09012000FA02F241F82F
:1047C800232000BF0C37BD4680BC704700E100E0E5
:1047D80080B483B000AF0346FB7197F90730002B14
:1047E80012DBFB7903F01F020A4997F907305B09CE
:1047F800012000FA02F2203341F82320BFF34F8F43
:1048080000BFBFF36F8F00BF00BF0C37BD4680BC31
:10481800704700BF00E100E080B483B000AF0346FA
:104828003960FB7197F90730002B0ADB3B68DAB275
:104838000C4997F907301201D2B20B4483F80023D0
:104848000AE03B68DAB20849FB7903F00F03043B3E
:104858001201D2B20B441A7600BF0C37BD4680BC99
:10486800704700BF00E100E000ED00E080B489B0CF
:1048780000AFF860B9607A60FB6803F00703FB617A
:10488800FB69C3F10703042B28BF0423BB61FB6941
:104898000433062B02D9FB69033B00E000237B614C
:1048A8004FF0FF32BB6902FA03F3DA43BB681A40E0
:1048B8007B699A404FF0FF317B6901FA03F3D943D2
:1048C8007B680B40134318462437BD4680BC7047AD
:1048D80080B582B000AF78607868FFF72BFF00BF23
:1048E8000837BD4680BD80B586B000AF0346B960C5
:1048F8007A60FB73FFF742FF78617A68B968786974
:10490800FFF7B4FF024697F90F3011461846FFF734
:1049180083FF00BF1837BD4680BD80B582B000AFA9
:104928000346FB7197F907301846FFF735FF00BFBC
:104938000837BD4680BD80B582B000AF0346FB7125
:1049480097F907301846FFF743FF00BF0837BD4601
:1049580080BD000080B582B000AF78607B68002B16
:1049680001D101238EE07B681B681A46474B9A42A7
:104978000FD87B681B681A46454B1344454AA2FB6F
:1049880003231B099A007B685A647B68424A1A64AD
:104998000EE07B681B681A46404B13443D4AA2FB55
:1049A80003231B099A007B685A647B683C4A1A6493
:1049B8007B68022283F825207B681B681B687A685D
:1049C800126823F4FF4323F0700313607B681B68AD
:1049D80019687B689A687B68DB681A437B681B697F
:1049E8001A437B685B691A437B689B691A437B6837
:1049F800DB691A437B681B6A1A437B681B680A4396
:104A08001A60786800F024FB7B689B68B3F5804FD8
:104A180002D17B6800225A607B685A687B689B6C6D
:104A280002F07F021A607B68DB6C7A68126D5A604C
:104A38007B685B68002B10D07B685B68042B0CD804
:104A4800786800F04DFB7B685B6D00221A607B681C
:104A58009B6D7A68D26D5A6008E07B6800225A65BF
:104A68007B6800229A657B680022DA657B680022F1
:104A7800DA637B68012283F825207B68002283F8AB
:104A88002420002318460837BD4680BD070402408D
:104A9800F8FFFDBFCDCCCCCC00000240F8FBFDBF39
:104AA8000004024080B582B000AF78607B68002BBC
:104AB80001D101237BE07B681B681A687B681B684F
:104AC80022F001021A607B681B681A463A4B9A4228
:104AD8000FD87B681B681A46384B1344384AA2FB28
:104AE80003231B099A007B685A647B68354A1A6459
:104AF8000EE07B681B681A46334B1344304AA2FB0E
:104B080003231B099A007B685A647B682F4A1A643E
:104B18007B681B6800221A607B685B6C03F01C02D0
:104B28007B681B6C012101FA02F25A60786800F078
:104B38008FFA7B689B6C00221A607B68DB6C7A6852
:104B4800126D5A607B685B68002B0FD07B685B68CE
:104B5800042B0BD8786800F0C3FA7B685B6D0022E1
:104B68001A607B689B6D7A68D26D5A607B680022F8
:104B78005A657B6800229A657B680022DA657B6843
:104B88000022DA627B6800221A637B6800225A637B
:104B98007B6800229A637B680022DA637B680022C4
:104BA80083F825207B68002283F8242000231846F8
:104BB8000837BD4680BD00BF07040240F8FFFDBFAF
:104BC800CDCCCCCC00000240F8FBFDBF0004024075
:104BD80080B586B000AFF860B9607A603B600023AA
:104BE800FB75FB6893F82430012B01D1022369E09F
:104BF800FB68012283F82420FB6893F82530DBB298
:104C0800012B55D1FB68022283F82520FB6800227E
:104C1800DA63FB681B681A68FB681B6822F00102EC
:104C28001A603B687A68B968F86800F0D3F9FB68DD
:104C38001B6B002B08D0FB681B681A68FB681B6895
:104C480042F00E021A600FE0FB681B681A68FB68E6
:104C58001B6822F004021A60FB681B681A68FB686C
:104C68001B6842F00A021A60FB689B6C1B6803F41D
:104C78008033002B07D0FB689B6C1A68FB689B6C21
:104C880042F480721A60FB685B6D002B07D0FB68EA
:104C98005B6D1A68FB685B6D42F480721A60FB6892
:104CA8001B681A68FB681B6842F001021A6008E07A
:104CB800FB688022DA63FB68002283F82420012342
:104CC800FB75FB7D18461837BD4680BD80B483B0A0
:104CD80000AF78607B68002B01D101234FE07B682F
:104CE80093F82530DBB2022B08D07B680422DA6304
:104CF8007B68002283F82420012340E07B681B683E
:104D08001A687B681B6822F00E021A607B689B6C2D
:104D18001A687B689B6C22F480721A607B681B6837
:104D28001A687B681B6822F001021A607B685B6C5A
:104D380003F01C027B681B6C012101FA02F25A6025
:104D48007B68DB6C7A68126D5A607B685B6D002B40
:104D58000CD07B685B6D1A687B685B6D22F480728F
:104D68001A607B689B6D7A68D26D5A607B680122F5
:104D780083F825207B68002283F824200023184626
:104D88000C37BD4680BC704780B584B000AF7860F2
:104D98000023FB737B6893F82530DBB2022B05D028
:104DA8007B680422DA630123FB7347E07B681B6896
:104DB8001A687B681B6822F00E021A607B681B6801
:104DC8001A687B681B6822F001021A607B689B6C7A
:104DD8001A687B689B6C22F480721A607B685B6C33
:104DE80003F01C027B681B6C012101FA02F25A6075
:104DF8007B68DB6C7A68126D5A607B685B6D002B90
:104E08000CD07B685B6D1A687B685B6D22F48072DE
:104E18001A607B689B6D7A68D26D5A607B68012244
:104E280083F825207B68002283F824207B689B6B0D
:104E3800002B03D07B689B6B78689847FB7B1846F0
:104E48001037BD4680BD000080B584B000AF7860E3
:104E58007B681B6C1B68FB607B681B681B68BB60FE
:104E68007B685B6C03F01C0304229A40FB681340C8
:104E7800002B27D0BB6803F00403002B22D07B68EB
:104E88001B681B6803F02003002B07D17B681B6895
:104E98001A687B681B6822F004021A607B685B6CE6
:104EA80003F01C027B681B6C042101FA02F25A60B1
:104EB8007B681B6B002B00F081807B681B6B78681C
:104EC80098477BE07B685B6C03F01C0302229A40E6
:104ED800FB681340002B3DD0BB6803F00203002B96
:104EE80038D07B681B681B6803F02003002B0BD1AC
:104EF8007B681B681A687B681B6822F00A021A60C4
:104F08007B68012283F825207B681B681A462E4B94
:104F18009A4209D97B685B6C03F01C032B4A022177
:104F280001FA03F3536008E07B685B6C03F01C0331
:104F3800274A022101FA03F353607B68002283F8B1
:104F480024207B68DB6A002B38D07B68DB6A7868B2
:104F5800984733E07B685B6C03F01C0308229A4097
:104F6800FB681340002B2AD0BB6803F00803002B12
:104F780025D07B681B681A687B681B6822F00E02C4
:104F88001A607B685B6C03F01C027B681B6C012158
:104F980001FA02F25A607B680122DA637B68012217
:104FA80083F825207B68002283F824207B685B6BCC
:104FB800002B04D07B685B6B7868984700BF00BF04
:104FC8001037BD4680BD00BF80000240000402408B
:104FD8000000024080B485B000AFF860B9607A6024
:104FE8003B60FB68DB6CFA68126D5A60FB685B6DAE
:104FF800002B04D0FB689B6DFA68D26D5A60FB6881
:105008005B6C03F01C02FB681B6C012101FA02F2C5
:105018005A60FB681B683A685A60FB689B68102BEB
:1050280008D1FB681B687A689A60FB681B68BA68D5
:10503800DA6007E0FB681B68BA689A60FB681B685F
:105048007A68DA6000BF1437BD4680BC704700003C
:1050580080B485B000AF78607B681B681A461C4B2B
:105068009A4213D87B685B6C9B089B0003F18043D2
:1050780003F502337A6893647B681B68DBB2083BEC
:10508800144AA2FB03231B09FB6011E07B685B6CDD
:105098009B089A00104B13447A6893647B681B68DA
:1050A800DBB2083B0B4AA2FB03231B090733FB6057
:1050B8007B680A4ADA64FB6803F01F0301229A40FE
:1050C8007B681A6500BF1437BD4680BC704700BFB7
:1050D80007040240CDCCCCCC1C080240800802401A
:1050E80080B485B000AF78607B685B6803F07F03AD
:1050F800FB60FA680A4B13449B001A467B685A65A2
:105108007B68084A9A65FB68013B03F003030122A8
:105118009A407B68DA6500BF1437BD4680BC70478B
:105128003F8200104009024080B586B000AFF860A9
:10513800B960C7E900231C4B1B78012B01D102235E
:105148002DE0194B01221A70174B00225A604FF4B8
:105158007A7000F069F80346FB75FB7D002B1AD1C5
:10516800FB68012B05D1D7E90023B86800F0BEF829
:1051780004E03B681946B86800F0DEF84FF47A702E
:1051880000F052F80346FB75084B5A69FB68DB438D
:10519800064913404B61044B00221A70FB7D1846E8
:1051A8001837BD4680BD00BF70030020004000587E
:1051B80080B483B000AF0023FB710B4B5B69002BFD
:1051C8000BDA094B094A9A60074B094A9A60064B61
:1051D8005B69002B01DA0123FB71FB7918460C3758
:1051E800BD4680BC704700BF00400058230167459A
:1051F800AB89EFCD80B483B000AF0023FB71094BBE
:105208005B69084A43F000435361064B5B69002B16
:1052180001DB0123FB71FB7918460C37BD4680BCC6
:10522800704700BF0040005880B584B000AF786078
:10523800FDF754FBF86009E0FDF750FB0246FB68F8
:10524800D31A7A689A4201D8032346E0254B1B6992
:1052580003F48033B3F5803FEED0224B1B69BB606B
:10526800BB6803F00103002B02D01E4B01221A6118
:10527800BA684CF2FA331340BB60BB68B3F1804F95
:1052880007D3184B9A69BB6803F040431549134389
:105298008B61BB6823F04043002B04D0114ABB68E4
:1052A80023F040431361BB68002B0ED00E4ABB6845
:1052B8005360012311E0FDF711FB0246FB68D31A86
:1052C8007A689A4201D8032307E0064B1B6903F466
:1052D8008023B3F5802FEED0002318461037BD4643
:1052E80080BD00BF004000587003002080B485B026
:1052F80000AFF860C7E900230E4B5B690D4A43F025
:1053080001035361FB683A681A60BFF36F8F00BFEF
:10531800D7E900014FF000024FF000030A00002314
:10532800F968043113460B6000BF1437BD4680BCD2
:10533800704700BF0040005880B489B000AF786063
:1053480039604023FB777B68BB613B687B61184B06
:105358005B69174A43F480235361EFF31083FB60C2
:10536800FB683B6172B600BF7B691A68BB691A604B
:10537800BB690433BB617B6904337B61FB7F013B01
:10538800FB77FB7F002BEFD100BF094B1B6903F4B0
:105398008033B3F5803FF8D03B69BB60BB6883F3CB
:1053A800108800BF00BF2437BD4680BC704700BFCF
:1053B8000040005880B584B000AF78603960284B51
:1053C8001B78012B01D1022346E0254B01221A70DC
:1053D800234B00225A604FF47A70FFF725FF0346EB
:1053E800FB73FB7B002B33D17B681B68042B08D134
:1053F80000F038F84FF47A70FFF716FF0346FB7396
:1054080024E03B684FF0FF321A607B685B68BB6042
:1054180012E0B86800F036F84FF47A70FFF704FF2E
:105428000346FB73FB7B002B03D03B68BA681A600A
:105438000AE0BB680133BB607B685A687B689B687D
:105448001344BA689A42E4D300F078F800F032F8CE
:10545800034B00221A70FB7B18461037BD4680BDEF
:105468007003002080B400AF054B5B69044A43F425
:10547800803343F00403536100BFBD4680BC7047CE
:105488000040005880B483B000AF7860084B5B6977
:1054980023F47E727B68DB001343054A43F48033B0
:1054A80043F00203536100BF0C37BD4680BC704710
:1054B8000040005880B400AF1F4B1B6803F4007312
:1054C800012B17D11C4B1B681B4A23F40073136074
:1054D800194B1B68184A43F400631360164B1B688A
:1054E800154A23F400631360134B1B68124A43F4F4
:1054F80000731360104B1B6803F48063012B17D1F2
:105508000D4B1B680C4A23F4806313600A4B1B681D
:10551800094A43F480531360074B1B68064A23F477
:1055280080531360044B1B68034A43F48063136081
:1055380000BFBD4680BC70470040005880B400AF33
:10554800054B5B69044A23F47E7323F0020353611D
:1055580000BFBD4680BC70470040005880B487B08B
:1055680000AF7860396000237B6140E13B681A68CE
:1055780001217B6901FA03F31340FB60FB68002BF0
:1055880000F032813B685B6803F00303012B05D010
:105598003B685B6803F00303022B30D17B689B6890
:1055A8003B617B695B00032202FA03F3DB433A6940
:1055B80013403B613B68DA687B695B0002FA03F3DE
:1055C8003A6913433B617B683A699A607B685B6818
:1055D8003B6101227B6902FA03F3DB433A6913401A
:1055E8003B613B685B681B0903F001027B6902FAB7
:1055F80003F33A6913433B617B683A695A603B6835
:105608005B6803F00303032B17D07B68DB683B61FF
:105618007B695B00032202FA03F3DB433A69134018
:105628003B613B689A687B695B0002FA03F33A695D
:1056380013433B617B683A69DA603B685B6803F057
:105648000303022B23D17B69DA087B68083253F8FD
:1056580022303B617B6903F007039B000F2202FAAB
:1056680003F3DB433A6913403B613B681A697B6982
:1056780003F007039B0002FA03F33A6913433B6103
:105688007B69DA087B680832396943F822107B683D
:105698001B683B617B695B00032202FA03F3DB436F
:1056A8003A6913403B613B685B6803F003027B691E
:1056B8005B0002FA03F33A6913433B617B683A697A
:1056C8001A603B685B6803F44033002B00F08C8061
:1056D8004E4A7B699B08023352F823303B617B6951
:1056E80003F003039B00072202FA03F3DB433A6942
:1056F80013403B617B68B3F1904F0DD07B68444AFF
:10570800934207D07B68434A934201D1022304E0C5
:10571800072302E0012300E000237A6902F0030274
:10572800920093403A6913433B6138497B699B086F
:1057380002333A6941F82320374B1B683B61FB6809
:10574800DB433A6913403B613B685B6803F48013B1
:10575800002B03D03A69FB6813433B612E4A3B692F
:1057680013602D4B5B683B61FB68DB433A69134070
:105778003B613B685B6803F40013002B03D03A6974
:10578800FB6813433B61244A3B695360224BD3F8BF
:1057980080303B61FB68DB433A6913403B613B68FF
:1057A8005B6803F48033002B03D03A69FB6813432A
:1057B8003B61194A3B69C2F88030174BD3F88430F3
:1057C8003B61FB68DB433A6913403B613B685B68BC
:1057D80003F40033002B03D03A69FB6813433B61A1
:1057E8000D4A3B69C2F884307B6901337B613B68B1
:1057F8001A687B6922FA03F3002B7FF4B7AE00BF67
:1058080000BF1C37BD4680BC704700BF0000014088
:1058180000040048000800480008005880B487B019
:1058280000AF7860396000237B61AFE001227B69BB
:1058380002FA03F33A6813403B613B69002B00F01E
:10584800A280594A7B699B08023352F82330FB60D7
:105858007B6903F003039B00072202FA03F3FA684B
:105868001340FB607B68B3F1904F0DD07B684F4AC3
:10587800934207D07B684E4A934201D1022304E049
:10588800072302E0012300E000237A6902F0030203
:1058980092009340FA689A4236D1464BD3F880205A
:1058A8003B69DB4343491340C1F88030414BD3F88F
:1058B80084203B69DB433F491340C1F884303D4BAA
:1058C8001A683B69DB433B4913400B60394B5A6804
:1058D8003B69DB43374913404B607B6903F00303A3
:1058E8009B00072202FA03F3FB602F4A7B699B089F
:1058F800023352F82310FB68DA432B487B699B0874
:105908000A40023340F823207B681A687B695B00F1
:10591800032101FA03F31A437B681A607B69DA08EA
:105928007B68083253F822107B6903F007039B0059
:105938000F2202FA03F3DB437A69D20819407B6825
:10594800083243F822107B689A687B695B00032160
:1059580001FA03F3DB431A407B689A607B685A6854
:1059680001217B6901FA03F3DB431A407B685A6023
:105978007B68DA687B695B00032101FA03F3DB4388
:105988001A407B68DA607B6901337B613A687B691E
:1059980022FA03F3002B7FF449AF00BF00BF1C3786
:1059A800BD4680BC704700BF0000014000040048AD
:1059B800000800480008005880B483B000AF786041
:1059C8000B467B8013467B707B78002B03D07A884C
:1059D8007B689A6102E07A887B689A6200BF0C371C
:1059E800BD4680BC7047000080B582B000AF03465A
:1059F800FB80084BDA68FB881340002B06D0054A69
:105A0800FB88D360FB88184605F07AFE00BF08378C
:105A1800BD4680BD0008005880B582B000AF7860F0
:105A28007B68002B01D101238DE07B6893F841301E
:105A3800DBB2002B06D17B68002283F8402078680F
:105A4800FCF70CFB7B68242283F841207B681B68E9
:105A58001A687B681B6822F001021A607B685A6822
:105A68007B681B6822F070621A617B681B689A6801
:105A78007B681B6822F400429A607B68DB68012B14
:105A880007D17B689A687B681B6842F400429A6079
:105A980006E07B689A687B681B6842F404429A6057
:105AA8007B68DB68022B08D17B681B685A687B68B7
:105AB8001B6842F400625A6007E07B681B685A68FA
:105AC8007B681B6822F400625A607B681B685B680D
